:060000000A128A11122809
:10000800FE00030E83120313AB000408AC000A08B9
:10001800AD007F08AE000A128A1122280A128A113E
:10002800152883120313B601B701B801B901BA0143
:10003800BB01BC0183010A128A11622B8C1E252880
:100048002628A1281A08A9002908BB00023038066A
:100058003904031D3028312850281A08A900290816
:10006800BA003A0899003A0888006030F0008030F9
:10007800F1000A128A11C0220A128A114E30F000C9
:100088008030F1000A128A11C0220A128A118312E2
:100098000313B801B901A12831303B06031D5528C7
:1000A80056288C283708A5003608A4000A30A60070
:1000B8000030A7003C300A128A113C230A128A1128
:1000C8003330F0008030F1000A128A11C0220A127F
:1000D8008A113C30F0000030F1000A128A11C02267
:1000E8000A128A116030F0008030F1000A128A1179
:1000F800C0220A128A114E30F0008030F1000A1234
:100108008A11C0220A128A1183120313B801B90195
:1001180032303B06031D91289228A1283630F00082
:100128008030F1000A128A11C0220A128A110230A4
:1001380083120313B8000030B9000C1FA428A528A7
:10014800B6281F0CA900290C0F39003A031DAD2849
:10015800AE28B5281E08A900AA012908B6002A0851
:10016800B7000C132E08FF002D088A002C08840005
:0A0178002B0E8300FE0E7E0E090020
:10020000FF1B0A2983137F1883170008840A031928
:10021000FF0A080001308A000408840A82070034BB
:1002200049346E3467347234653473346534203441
:1002300075346E34613420346F347034633469340F
:100240006F346E343A3420340A340D3431342E3461
:100250004C34653465347234203470346F34743403
:1002600020340A340D3432342E3445346E3476342E
:1002700069346134723420346134733463346934E2
:10028000693420340A340D3400340A340D344934CE
:100290006E346734723465347334653420346534B5
:1002A0006C342034633461347234613463347434B4
:1002B000653472340A340D3400342D342D342D3429
:1002C0002D342D342D342D342D342D342D342D3426
:1002D0002D342D342D342D340A340D3400340A34A9
:1002E0000D340A340D34463469346E342E342E34D1
:1002F0002E340A340D34003483120313A30079081A
:10030000A1007808A0007B08F1007A08F00021081D
:10031000F3002008F2000A128A117C220A128A11C4
:10032000710883120313A1007008A0000130FC00C3
:100330007C08A30720082104031D9F29A0298329E5
:1003400023088400831380010130A3027B08F1009D
:100350007A08F0007908F3007808F2000A128A118E
:1003600002230A128A117008FC007C08831203130E
:10037000A2007B08F1007A08F0007908F300780801
:10038000F2000A128A117C220A128A117108F900FD
:100390007008F8000A30831203132202031CD129CB
:1003A000D229D6290730FC007C08A2073030FC0097
:1003B0007C08A2072208FC00230884007C08831321
:1003C00080000130A30278087904031DE829E92997
:1003D000A6290130FC007C08A30708000130831621
:1003E00003178800890101308316031385008801F3
:1003F00083120313850188018B170B1783160313D0
:100400008C160C17831203130C13831603130F0897
:100410008F3940388F000F141812181583160317E0
:10042000871519308316031399009A018312031359
:1004300098178316031318139816831203131816AC
:100440003F309F05831603131F129F12C330831280
:1004500003139F05831603139F13831203131F14A3
:10046000023083120313AF00AF0B342A00000800E0
:1004700083120313B401B5015F2A0C1E402A412ADE
:100480005F2A34082F07B2003008B1000318B10A00
:10049000B41F4B2AB103831203133108B30033088E
:1004A000FF00320884000A128A1100210A128A1100
:1004B00099000130B4070318B50A0030B5073408B5
:1004C0002F07B2003008B1000318B10AB41F692A1F
:1004D000B103831203133108B3003308FF0032085D
:1004E00084000A128A1100210A128A11003A031D9F
:1004F0007A2A7B2A3D2A0800F501F601700871046A
:100500000319832A842ABB2AF701F70A922A0130A9
:100510000310F00DF10DFF3E031D882A0130F40099
:100520007408F707F11F952A962A872A01300310CD
:10053000F50DF60DFF3E031D972A71087302031D8A
:10054000A32A70087202031CA62AA72AAE2A7008E2
:10055000F2027108031CF303F30275140130031057
:10056000F10CF00CFF3E031DAF2A0130F702031D12
:10057000BA2ABB2A962A7608F1007508F00008000E
:10058000F501F601E52A0C1EC62AC72AE52A7508D8
:100590007007F3007108F2000318F20AF51FD12A60
:1005A000F2037208F400740883120313FF00730847
:1005B00084000A128A1100210A128A11990001305E
:1005C000F5070318F60A0030F60775087007F30000
:1005D0007108F2000318F20AF51FEF2AF2037208FD
:1005E000F400740883120313FF00730884000A12D6
:1005F0008A1100210A128A11003A031D002B012BD7
:10060000C32A0800700871040319072B082B372B25
:10061000F501F50A162B01300310F00DF10DFF3E28
:10062000031D0C2B0130F4007408F507F11F192B82
:100630001A2B0B2B71087302031D202B70087202FA
:10064000031C232B242B2A2B7008F2027108031C95
:10065000F303F30201300310F10CF00CFF3E031D15
:100660002B2B0130F502031D362B372B1A2B730869
:10067000F1007208F000080083120313A800A51F00
:10068000422B432B532B2D30FD00280884007D087E
:10069000831380000130FD007D08A807A409A50987
:1006A000A40A0319A50A2508F9002408F800270858
:1006B000FB002608FA0028080A128A117C210A1277
:1006C0008A1108000A128A11EE210A128A11831275
:1006D00003139F186C2B6D2B6E2B9F143808390455
:1006E000031D732B742B672B0130AF008030B000DB
:1006F0000A128A1138220A128A1101308312031356
:0E070000B8000030B900672B0A128A111228C7
:08400000FF3FFF3FFF3FFF3FC0
:04400E00D420FF3F7C
:00000001FF
